:020000040000FA
:0600000062EF5CF012004B
:0600080004EF50F01200AD
:060018000CEF50F0120095
:06A0000062EF5CF01200AB
:02A00600120046
:06A0080016EF50F01200FB
:06A0180019EF50F01200E8
:02A01E0001003F
:0CA0200097B800007F0000000100000065
:04A02C00E6EC54F01A
:10A030001100D8CFE4FFE0CFE4FFE46EE6EC54F08B
:10A04000E550E5CFE0FFE5CFD8FF10003AEC5BF03C
:10A050000009FCE054EC59F0BFEC59F0F4EC57F077
:10A06000F1EC55F0E66A4CEC56F0E552E66AE66A29
:10A07000810EE66EB80E3FEF54F06FEC54F0020E16
:10A08000E1260F0EC112580EDE6E020EDD6E9B8CA5
:10A09000DFCF14F0DF06010EDBCF15F001E2DB06A7
:10A0A00014501510F5E10F0148694969CFDF020E20
:10A0B000E15C02E2E16AE55265EF54F06FEC54F0C6
:10A0C000040EE12690EC54F04DEC55F007E186DBF0
:10A0D0007BEC54F02CDBF8E2DB06F6D7040EE15CF7
:10A0E00002E2E16AE552F1D36FEC54F0040EE1268E
:10A0F00084EC55F020E008680968FD0EDBCF0DF018
:10A10000FE0EDBCF0EF0ACEC5BF0FD0E06C0DBFF0D
:10A11000FE0E07C0DBFF90EC54F0020E030E4DEC78
:10A1200055F005E13FEC55F0F8E2DB06F6D7EDEC33
:10A1300054F02D0E0FD090EC54F0020E030E4DECA7
:10A1400055F005E13FEC55F0F8E2DB06F6D7EDEC13
:10A1500054F02B0EEF6EFB0EDBCF14F0FC0EDBCFBA
:10A1600015F087EC55F0040EE15C02E2E16AE5527D
:10A17000ACD3B5DBDDDB030EE6DBE66A5DDB02E6D6
:10A18000F4EC54F011E3EADBD890175004E6580ED3
:10A19000165C020E175808E3E66A040EE66E790EA6
:10A1A000E66EB80E45EC55F023EC55F002E6F4EC03
:10A1B00054F010E2D3DB17340DE216505808020EAB
:10A1C000175408E2E66A040EE66E710EE66EB80EEB
:10A1D00045EC55F0E6DB02E6F4EC54F015E20A0E2D
:10A1E000DBCF16F00B0EDBCF17F017340DE2165055
:10A1F0005808020E175408E2E66A040EE66E690E6D
:10A20000E66EB80E45EC55F00E0EE15C02E2E16A36
:10A21000E5525BD364DB8CDB010E95DB020EE66E50
:10A220000BDB01E6E6DB0BE399DBD890175004E685
:10A23000F40E165C010E175802E3B60E55DB23EC44
:10A2400055F001E6D6DB05E2E66AB60EE66E5F0E75
:10A250006ADAA7DB01E6CDDB04E20A0EB3DB3F0ED0
:10A2600062DA0E0EE15C02E2E16AE5522ED337DBE0
:10A27000090EE126DE6ADD6AA00EC216110EC212B8
:10A28000C282C2B2FED7C450176E166AC350000114
:10A290001624146E000E1720156E14C0DEFFDD6E3E
:10A2A000D950020F87DB0ADFE552E552E552E5524D
:10A2B000060EDB6AE66AE66A640EE66EB80EDFDA60
:10A2C000190EE66EE66AD950020F04DB0A0E146E10
:10A2D000156A0D6E15C00EF0DECF08F0DDCF09F067
:10A2E00086EC5BF008C0DEFF09C0DDFFD950FD0F32
:10A2F000E96EFF0EDA20EA6E140EEE1808E1ED505A
:10A3000006E1B20EF1DAFD0EDB6AFE0EDB6AFD0E2F
:10A31000DB2AFE0E01E3DB2AE66AB20EE66E8CEC67
:10A3200055F05E0EE66E31EC57F0146E050EE15EF0
:10A33000145054DAECDB090EE15C02E2E16AE5520A
:10A34000C4D2340EE66EE66A5C0EE66EB80E97DA9C
:10A3500081B006D0600EE66EB10EE66E7D0E05D0C1
:10A36000600EE66EB10EE66E7B0E93EF53F0B7DA39
:10A370000B0EE126DE6ADD6A080ECBDAD950070F34
:10A3800019DBB7EC55F00B0EDB6A090EDB50E76EFC
:10A39000020EE7CFDBFF0A0EDB50E76E030EE7CFBE
:10A3A000DBFF7E0EF36E040EF3CFDBFF050EDB6AE0
:10A3B000E66A020EE66E560EE66EB80E60DA1E0E05
:10A3C000E66E020EE66ED950020F84DA0B0EE15CE7
:10A3D00002E2E16AE55279D25CDB030E9ADA020E00
:10A3E00004DA0CDBFEE1D3D901E09BDB4DDA153456
:10A3F00027E214500008000E155422E285DB0AE122
:10A4000050DB17501518E8AE02D0153401D0FBDA36
:10A4100001E232DA49DB14E0E1D9146C151E000EBA
:10A420001522060EDBCF16F0070EDBCF17F0155006
:10A430001718E8AE02D0173401D0EADA01E21CDACC
:10A4400023DAABDA1DE030DB0AE02BDB15501718FE
:10A45000E8AE02D0173401D0DBDA01E20DDA24DBFA
:10A460000FE112DA146C151E000E1522DED91750FA
:10A470001518E8AE02D0153401D0C5DA01E2FCD9D6
:10A4800024DB01E39ADA0EE2D0D9D890175004E623
:10A49000320E165C000E175805E24ADBBEDA520E89
:10A4A000DFDA52DB05DB04E6320E145C000E1558D1
:10A4B0000DE3BBD9173404E216509608000E17546A
:10A4C00005E35FDBCDDA5A0EA8DAB8DAFEDA0EE37E
:10A4D00074DA0CE3F1DA04E76A0E165CFF0E175823
:10A4E00005E326DBBDDA520E98DA2EDBE1DA04E66C
:10A4F000970E145C000E15580DE397D9173404E23B
:10A500001650FF08010E175405E33BDB86DA5A0E9E
:10A51000A7DA94DADADA13E314506908FF0E155457
:10A520000EE3CADA04E7010E165CFE0E175807E3C5
:10A530002EDB96DA4E0E71DA520E6FDA05DBBAD9DF
:10A54000460EE66E040EE66E530EE66EB80E97D912
:10A55000500EE66E040E8CDA02E2E16AE552B5D1E5
:10A5600098DA050ED6D9040E40D948DAFEE10FD9A3
:10A5700001E0D7DAC9DA0AE194DA17501518E8AE23
:10A5800002D0153401D03FDA01E276D98DDA0AE043
:10A5900088DA15501718E8AE02D0173401D038DA2F
:10A5A00001E26AD992DA01E308DA0FE23ED9D890E3
:10A5B000175004E6320E165C000E175806E231DA28
:10A5C000260EB1D8DBD9250E34DA72DA04E6320E63
:10A5D000145C000E15580DE328D9173404E2165008
:10A5E0009608000E175405E3A7DA250EC7DA260EE3
:10A5F000B1DA6BDA0DE3E1D90BE35EDA04E76A0E58
:10A60000165CFF0E175804E30CDA2EDA260E11DA68
:10A610004FDA04E6970E145C000E15580DE305D9C9
:10A62000173404E21650FF08010E175405E384DACC
:10A63000260EA4DA250E8EDA48DA13E314506908E0
:10A64000FF0E15540EE338DA04E7010E165CFE0E19
:10A65000175807E3E6D908DA250E65D899D9260EEA
:10A6600080DA28D9460EE66E060EE66E500EE66ECD
:10A67000B80E05D9500EE66E060EFAD902E2E16A6E
:10A68000E55223D106DA45D9060EAFD8B7D9FEE197
:10A690007ED801E046DA0ED9F7D867D902E2E16A3E
:10A6A000E55213D11CD9080EF6D8E7DCE66A4CEC6B
:10A6B00056F0E552060EDBCFE6FF070EDBCFE6FFD6
:10A6C000D6DDE552E552060EF3CFDBFF070EF4CFE1
:10A6D000DBFF4FDD9FDD35DE4ADE1EDA7DDEE55233
:10A6E000E552F3CFDEFFF4CFDDFF020EDBCFE6FF56
:10A6F000030EDBCFE6FF34DFE552E552020EF3CF67
:10A70000DBFF030EF4CFDBFFBDDF040EF3CFDBFF77
:10A71000050EF4CFDBFF040EDBCF14F0050EBDD920
:10A72000C9E0D6D9C7D7E66E7CEC56F0FDD104C09F
:10A73000DEFF05C0DDFF0A0E146E156AFD0EDBCFCD
:10A7400008F0FE0EDBCF09F014C00DF015C00EF0BE
:10A7500086EC5BF0C4D9DECF16F0DDCF17F0300EFB
:10A760001626000E1722020EDBCF14F0030EDBCFED
:10A7700015F0FB0EDB501424E96EFC0EDB501520A7
:10A78000EA6E16C0EFFF020EDB06030E1200165033
:10A790001824146E17501920156EAFD9A7D9040EBE
:10A7A00008C0DBFF050E09C0DBFF040EDBCF14F091
:10A7B000050EDBCF15F015C014F0156AD8901432D1
:10A7C000040E14C0DBFF050E15C0DBFFD950040FCB
:10A7D000E96EDACFEAFFEE50ED101200FD0EDBCF8E
:10A7E00014F0FE0EDBCF15F01200E66ED7EC58F039
:10A7F000E552E66ED950020FE96EDACFEAFFE55274
:10A80000E750EE6EED6ADECF16F0DDCF17F0D89090
:10A8100016361736D89016361736020EDBCF18F0DC
:10A82000030EDBCF19F0060E1200FD0EDBCF16F083
:10A83000FE0EDBCF17F0120057EC59F0E5520C0E6C
:10A84000F3CFDBFF0D0EF4CFDBFFD9CFE6FFDACF7E
:10A85000E6FF0A0EDBCFE6FF0B0EFED8D950050F40
:10A860002FD90C0EDBCFE6FF0D0EF6D8040EDB6AF7
:10A87000090EDB6A23EF55F039D96FEF55F0E66E1C
:10A88000C0EC56F0E55250D1060EDBCF14F0070EA7
:10A89000DBCF15F01200E1261BD9040EDB6A050E92
:10A8A000DB6A060EDB6A070EDB6A1200E66EB30E89
:10A8B000E66E1200D950080F03D9060EDBCFE6FF73
:10A8C000070ECAD80C0EDB6A1200E16EE552E7CF24
:10A8D000D9FF1200F5D8D2EC56F0E55225D1D9CFE8
:10A8E000E6FFE1CFD9FF1200E66EE66A70EC56F0A3
:10A8F000E552E55212000A0E0D6E0E6A14C008F001
:10A9000015C009F086EF5BF01450FC0E15127DEFB8
:10A9100055F0E66ED7EC58F0E552DE6EDD6A1200B7
:10A92000030EF36E020EF3CFDBFF030EDB6A1200A1
:10A930000E0EE1260A0EDB6A0B0EDB6A0C0EDB6ADA
:10A940000D0EDB6A1200E66E57EC59F0E5520A0E66
:10A95000F3CFDBFF0B0EF4CFDBFF12000C0EDBCFCF
:10A9600016F00D0EDBCF17F01200D1D80D0EE15C02
:10A970001200700EE66EB20EE66E1200700EE66EFB
:10A98000B40EE66E1200700EE66EB10EE66E1200A8
:10A99000700EE66EB50EE66E12000001800E151404
:10A9A00012000C0EDBCF14F00D0EDBCF15F0D8909B
:10A9B0001550120085D88CEF55F01450CE08FF0EBC
:10A9C00015541200E66EB60EE66E1200DACFE4FF02
:10A9D000E652E552E5CFDAFF1200FB0EDBCFE9FFCE
:10A9E000FC0EDBCFEAFF1200580E145C020E155865
:10A9F0001200F40E145C010E15581200D890193292
:10AA00001832E80412001450165C15501758120042
:10AA10001650145C17501558120048DF230E93EFA0
:10AA200053F08AD8250EAAD8250E7DDE700E56EF7B
:10AA300054F079DEADDF250EB1EF55F05E0E36DF56
:10AA40005D0E93EF53F00A0EDBCF14F00B0EDBCF4D
:10AA500015F0D89015501200DBCFE6FFB7EF55F098
:10AA600025DF240E93EF53F0250E5DDEBEEF54F08C
:10AA7000E66ED950080F2EDFB1DEB5EF54F0AEDE32
:10AA80003ADF05C015F097EF53F0F9DEB40E74EF1E
:10AA900054F025DF0D0E4BEF54F0DBCF15F0CDEF6A
:10AAA00054F0F2DE15EF54F099DE800E151412000A
:10AAB00095DED89015501200B8DED88017501200DD
:10AAC000E66E000EDA20E66E120088DE1534120003
:10AAD000DE6ADD6A020EDB6A030EDB6A1200FD0E1F
:10AAE00008C0DBFFFE0E09C0DBFF1200060EDBCF45
:10AAF00008F0070EDBCF09F01200060E14C0DBFFD2
:10AB0000070E15C0DBFF120069DECDEF54F014C054
:10AB1000F3FF15C0F4FF1200DECFE6FFDDCFE6FF46
:10AB20001200B2DE84EF54F0E552E552E552120015
:10AB30002ED873DF4E0E1200700EE66EB00EE66E6B
:10AB4000280EF1DDC3EF54F0560E67DF5A0E65DFB5
:10AB50001EEF55F0E8DD700EA9DE86DF250E19EF39
:10AB600055F0E1DD700E2EDF290E93EF53F074ECFB
:10AB700050F0E552E552E552E5521200D4DDB9EF4E
:10AB800054F0D6DF4ADF520E48DF560E1200460E52
:0AAB90008DDE5B0EC8DD4A0E1200D8
:06AB9A001FDAFD0EDBCF07
:10ABA00014F0DB06FE0EDBCF15F001E2DB061450DD
:10ABB000151010E0DE6ADD6ADECF14F0DDCF15F08F
:10ABC000E30E145C0D0E1558E9E2DF2A010EF4E3E2
:10ABD000DB2AF2D7020EE15C02E2E16AE552E16EA5
:10ABE0008CD186D9060EE1268D9296928D90969004
:10ABF0008D8496948A9A939A8C92C0D982D902E2D3
:10AC000099D9FCD78C82BAD97CD902E293D9FCD7E6
:10AC1000AE0E57D9DB0E55D9230E53D9D90E51D9C3
:10AC2000220E4FD9A10E4DD9C80E4BD9DA0E49D9F3
:10AC3000120E47D9A80E45D93F0E43D9D50E41D99A
:10AC4000A00E3FD9810E3DD9600E3BD9D30E39D924
:10AC5000E66AC7D9A60E35D9AD0E33D98B0E31D9D8
:10AC6000AF0E2FD90A0EE66EE66A97DFE552E5527F
:10AC7000A40E27D9400E25D9A5D9060EE15C02E223
:10AC8000E16AE552E16E39D133D97FD98A9A9FD1F1
:10AC90002FD97BD98A8A9BD1A0D9B00EDF6EB80E8E
:10ACA000DF5C17E2DFCFE6FF9CD98CD9010EDB6AAF
:10ACB000DB50146E156AD890155004E6840E145CAF
:10ACC000000E155804E268D9010EDB2AF1D7DF2AFD
:10ACD000E6D7020EE15C02E2E16AE552E16E0DD1D7
:10ACE00007D9E6525FD9DF6A780EDF5C03E254D9F8
:10ACF000DF2AFAD7E55201D1FBD8E652200E146EB6
:10AD0000FE0EDBCFE7FF1450E75EFE0EE7CFDBFF62
:10AD100049D9020E146EFC0EDBCFE7FF1450E72674
:10AD2000FC0EE7CFDBFFDB500F0BCBD8FC0EDB3884
:10AD30000F0B0F0B100FC5D8FE0EDBCFF6FFF76A17
:10AD4000F6BEF768C1D8CED8F6BEF768BDD8010EFA
:10AD500034D9F6BEF768B8D8020E2FD9F6BEF76818
:10AD6000B3D8030E2AD9F6BEF768AED8040EF6267D
:10AD7000000EF7221CD9E66A8BDFE552E552BDD002
:10AD8000B7D8CCD8EAD80CE0DFCFE6FFFC0EDBCF9B
:10AD9000E6FFE3D8D9D801E3DB2A060EDF26F2D797
:10ADA000E552ABD0A5D8BAD8E1D80CE0DFCFE6FFAA
:10ADB000FC0EDBCFE6FFDAD8C7D801E3DB2A060EAC
:10ADC000DF26F2D7E55299D093D8050EE126030E7F
:10ADD000DB6A040EDB6A020E146EFA0EDBCFE7FFAD
:10ADE0001450E726FA0EE7CFDBFFF90EDB50B00F69
:10ADF000DF6EFB0EDB50B00FDF5C2CE2DFCFE6FF37
:10AE0000F0D8FA0EDB500F0B5CD8FA0EDB380F0BC4
:10AE10000F0B100956D8010EDB6AFC0EDB50F36EE7
:10AE2000010EDBCFF4FFF350F45C12E2030EDB2AD9
:10AE3000040E01E3DB2AFD0EDBCFF6FFDB2AFE0E5C
:10AE4000DBCFF7FF01E3DB2AB2D8010EDB2AE5D71F
:10AE5000DF2ACFD7050EE15C02E2E16AE552E16E3E
:10AE60004CD0BBD8DE6ADD6ADECF14F0DDCF15F042
:10AE7000FC0EDBCF16F0FD0EDBCF17F015501718C8
:10AE8000E8AE02D0173404D01650145C1750155891
:10AE900011E2DFCFE6FFFB0EDBCFE6FFFE0EDBCFDE
:10AEA000E6FF2ADFE552E552E552DF2A010EDCE338
:10AEB000DB2ADAD7020EE15C02E2E16AE552E16EDA
:10AEC0001CD0E66EF1EF57F0050EF702F3CFF7FF57
:10AED000F602F3CFF6FFF450F726400EF626B40E36
:10AEE000F722120064D8FE0EDBCFF6FFF76A1200DD
:10AEF000D9CFE6FFE1CFD9FF1200E552E7CFD9FF66
:10AF00001200D9CFE9FFDACFEAFF640EEE5C000E43
:10AF1000EE58000EEE58000EEE581200E652FB0EF0
:10AF2000DB50DF6EFC0EDB50B10FE76EFC0EE7CF9F
:10AF3000DBFF1200D9CFE9FFDACFEAFFEE2A000EDD
:10AF4000EE22EE22EE221200E66ED6DEE552E55249
:10AF5000E552FD0EDB2AFE0E1200FD0EDBCFF6FFE2
:10AF6000FE0EDBCFF7FF0800F5501200FD0EDBCF21
:10AF7000E9FFFE0EDBCFEAFFEF501200DE6ADE6A69
:10AF8000DE6ADD6ADD52DD521200956AFE0EDB508C
:10AF90008C6E8D808D821200FE0EDBCFE6FF78DE98
:10AFA000E5521200FD0EDBCFE6FFF1EF57F008008F
:10AFB000F550E66E6DDEE5521200F626000EF72221
:10AFC00072EF57F0020E7DDF100E61EF57F08D9497
:10AFD0008D928D828D84956890D78ADF020EE1264E
:08AFE000120052DEE5521200DE
:08AFE800D9CFE6FFE1CFD9FF4C
:10AFF000030EE12659D8736A820E726E739C949484
:10B000009396958C7288728A949EE66AD0D8E5529F
:10B01000E76E020EE7CFDBFF0000D950020FE96EAA
:10B02000DACFEAFFEF50070B020801E00000140E30
:10B03000E66EBDD8E552E76E020EE7CFDBFF020EEB
:10B04000DB96DB88020EDB80DB92DB94020EDBCF2B
:10B05000E6FF140EE66E3AD8E552E552010EE66EB2
:10B06000A6D8E552DE6EDD6A0000110EE66E9FD8AE
:10B07000E552DE6EDD6A0000E66A110EE66E26D845
:10B08000E552E5520000110EE66E91D8E552DE6EF3
:10B09000DD6A0000030EE15C02E2E16AE552E16E66
:10B0A000E552E7CFD9FF1200550EA76EAA0EA76E84
:10B0B0000E01FF91090ECC6F0A0ED36F170EFB6FB6
:10B0C000550EA76EAA0EA76EFF811200D9CFE6FF1C
:10B0D000E1CFD9FFE652DF6AFE0EDB50140804E030
:10B0E000FE0EDB50340806E1140EE66E60D8E55221
:10B0F000E00BDF6E8B9EA49EFE0EDB50756EA4AE41
:10B10000FED700000000000000000000000000006A
:10B11000000000000000000000000000000000002F
:10B12000000000000000000000000000000000001F
:10B13000000000000000000000000000000000000F
:10B1400000000000000000000000000000000000FF
:10B1500000000000000000000000000000000000EF
:10B1600000000000000000000000000000000000DF
:10B1700000000000000000000000000000000000CF
:10B180000000A49EFE0EDB500A0805E1FD0EDB5018
:10B190007F0B756E04D0FD0EDB50DF10756EA4AE14
:10B1A000FED78B8EE552E552E7CFD9FF1200D9CFFB
:10B1B000E6FFE1CFD9FF8B9EA49EFE0EDB508009F7
:10B1C000756EA4AEFED70000000000000000000075
:10B1D000000000000000000000000000000000006F
:10B1E000000000000000000000000000000000005F
:10B1F000000000000000000000000000000000004F
:10B20000000000000000000000000000000000003E
:10B21000000000000000000000000000000000002E
:10B22000000000000000000000000000000000001E
:10B23000000000000000000000000000000000000E
:10B24000000000000000A49E756AA4AEFED78B8E9D
:0CB25000755000D0E552E7CFD9FF120086
:04B25C00030EB16EBE
:10B26000B392B390B396B288B28EB290B292A494D5
:10B27000B38E12002F0E926E0F01E00E486F1F0E5C
:10B28000496FC18EC19CC70EC1140809C16EF80E6A
:10B29000C1140209C16E498FC29CC29EC30EC21462
:10B2A0000809C26EC2801200D9DF3AEF59F0D9CF37
:10B2B000E6FFE1CFD9FF020EE126FE0EDB500F0BB9
:10B2C000F36EF346F346C30EC214F310C26EFE0EC5
:10B2D000DB50EA6A7B0FE96E000EEA22EF503F0B6B
:10B2E000F36EF346F346030EB114F310B16EB38E52
:10B2F000B382000000000000000000000000000019
:10B30000000000000000000000000000000000003D
:10B3100000000000000000000000B392B2800000B6
:10B32000000000000000000000000000000000001D
:10B33000000000000000000000000000000000000D
:10B34000000000000000B2909E9CC2829EACFED71E
:10B35000C3CFDEFFC4CFDDFFDECF14F0DDCF15F0AD
:10B3600014C0F3FF15C0F4FF00D0020EE15C02E24E
:10B37000E16AE552E16EE552E7CFD9FF1200D9CF7D
:10B38000E6FFE1CFD9FF030EE126020EDB6A040ED1
:10B39000F36E020EDBCFF4FFF350F45C21E22AD807
:10B3A000EF6A30D80CE226D8EF501F0803E122D80C
:10B3B000EF6A13D01FD8EF2A25D8F5E30ED02CD88A
:10B3C0000CE218D8EF50E10803E114D8EF6A05D079
:10B3D00011D8EF062BD820D8F4E3020EDB2AD7D7FA
:10B3E000030EE15C02E2E16AE552E16EE552E7CF6D
:10B3F000D9FF1200020EDB50EA6A7B0FE96E000EE5
:10B40000EA22120013D8DECF14F0DDCF15F0200EA3
:10B41000145C030E15581200D9CFE9FFDACFEAFF0A
:10B42000200ED880EE54030EED541200020EDBCF36
:10B43000E6FF3DDFE552F3CFDEFFF4CFDDFF120084
:10B44000000000000000004F00000007000700108F
:10B450001010101010100808100000FF000018183D
:10B46000E7000000050300006020202060030202C6
:10B47000020314083E081408083E08080050300073
:10B480000008080808080060600000201008040296
:10B490003E5149453E00427F4000426151494621AC
:10B4A00041454B311814127F1027454545393C4A18
:10B4B0004949300171090503364949493606494968
:10B4C000291E0036360000005636000008142241BE
:10B4D00000141414141400412214082040FF4020CA
:10B4E000324979413E7E1111117E7F494949363EEC
:10B4F000414141227F4141221C7F494949417F0905
:10B500000909013E4149497A7F0808087F00417FC7
:10B5100041002040413F017F081422417F404040CC
:10B52000407F020C027F7F0408107F3E4141413E74
:10B530007F090909063E4151215E7F0919294646C6
:10B540004949493101017F01013F4040403F1F20EF
:10B5500040201F3F4038403F6314081463070870C1
:10B5600008076151494543007F414100020408102A
:10B57000200041417F003C3C3C3C3C0402FF020473
:10B58000101827181020545454787F4844443838F1
:10B5900044444420384444487F3854545418087E66
:10B5A0000901020C5252523E7F0804047800447D87
:10B5B00040002040443D007F1028440000417F406F
:10B5C000007C041804787C08040478384444443827
:10B5D0007C14141408081414187C7C08040408480B
:10B5E00054545420043F4440203C4040207C1C20C4
:10B5F00040201C3C4030403C44281028440C505013
:10B60000503C4464544C4490909F909000007F00C4
:0BB6100000C0C0FFC0C000000609061B
:04B61C0000017FB1F9
:10B6200022D07F838B809490550EA76EAA0EA76EB2
:10B630000E01FF910E0ED16F550EA76EAA0EA76ECA
:10B64000FF810F0EBA6ECF0EBA140009BA6EBB6A34
:10B650000F01526B800ECB6E040ECA6EA496600E64
:10B66000776E7F0E766E120000017F917F938B8044
:10B670009490120000017FA109D08B50010B04E1CE
:10B680009450010B01E1010C7F91C8DF00017FA301
:10B69000C5DFA4A63AD0A496BA50300BE842E842DF
:10B6A000E842E842030819E1400EBB5C10E18B90D0
:10B6B0009490BA6ACA6A0E01D16B0F01526BCB68C3
:10B6C000766A7768A49600017F817F93010CBB2A7C
:10B6D000CF0EBA140009BA6E000CBA0EE96E0F0E46
:10B6E000EA6EEF50300BE842E842E842E842E82ACE
:10B6F000E850030BF36EF46EF346F346F346F3465D
:0CB70000CF0EEF14F310EF6EF450000CAD
:04B70C00006A0EAE13
:10B710008FEF5BF00D6C0E1EE86A0E22001E09AE64
:10B7200097EF5BF0086C091EE86A0922001E4CECDA
:10B730005CF009BEA7EF5BF000AE000C086C091EC0
:10B74000E86A0922046C051EE86A0522000C00BEA6
:10B750009EEF5BF00188FF0C09C013F008C012F0E7
:10B7600008500D02F4CF07F0F3CF06F009500E0297
:10B77000F4CF09F0F3CF08F00D02F3500726F45090
:10B780000822E86A092212500E02F3500726F450EC
:10B790000822E86A09220EAED2EF5BF01250085E72
:10B7A0001350095A13AE000C0D50085E0E50095A82
:02B7B000000C8B
:0EB7B2001E0EF66EA00EF76E000EF86E000171
:10B7C0000900F550706F0900F550716F03E1706763
:10B7D00001D03DD00900F5506B6F0900F5506C6F3A
:10B7E0000900F5506D6F09000900F550E96E090078
:10B7F000F550EA6E090009000900F5506E6F090066
:10B80000F5506F6F09000900F6CF72F0F7CF73F0B3
:10B81000F8CF74F06BC0F6FF6CC0F7FF6DC0F8FF97
:10B8200000016E5302E16F5307E00900F550EE6E20
:10B830006E07F8E26F07F9D772C0F6FF73C0F7FF23
:10B8400074C0F8FF00017007000E715BBFD71200D3
:10B85000593A00583A0054656D703A004F6E2F4FB8
:10B8600066663A00506F743A002D2D2D2D2D2D3E19
:10B87000003C2D2D2D2D2D2D003C3C2D2D2D3E3E03
:10B880000020504943313846205374617274657208
:07B89000204B697420200029
:01B8970000B0
:08B89800056A046A100EE76E58
:10B8A000D89008360936043605360D50045C0E5023
:10B8B000055805E30D50045E0E50055A082AE72E80
:04B8C000F0D71200AB
:0CB8C4001DEE00F02DEE00F0F86A019C73
:10B8D000D9EC5BF003EC50F052EC53F0FBD71200C4
:0EB8E00000EE00F00E0EEE6AEA62FDD71200D6
:01FFF800AA5E
:01FFF900F710
:01FFFA001FE7
:01FFFB00FF06
:01FFFC0063A1
:01FFFD00F80B
:01FFFE008181
:01FFFF00F110
:00000001FF
